:020000040800F2
:100000000050002001220008692000086F2000082D
:10001000752000087B2000088120000800000000F7
:100020000000000000000000000000008720000821
:1000300093200008000000009F200008AB2000086B
:1000400049220008492200084922000849220008E4
:1000500049220008492200084922000849220008D4
:1000600049220008492200084922000849220008C4
:1000700049220008492200084922000849220008B4
:1000800049220008492200084922000849220008A4
:100090004922000849220008492200084922000894
:1000A0004922000849220008492200084922000884
:1000B0004922000849220008492200084922000874
:1000C0004922000849220008492200084922000864
:1000D0004922000849220008492200084922000854
:1000E00049220008492200084922000800000000B7
:1000F0000000000000000000000000000000000000
:0C01000000000000000000005FF808F1A3
:10010C0010B5054C237833B9044B13B10448AFF345
:10011C0000800123237010BD141800200000000083
:10012C006049000808B5034B1BB103490348AFF302
:10013C00008008BD0000000018180020604900086D
:10014C00034613F8012B002AFBD1181A013870470B
:10015C0080B584B000AF0346FB7100224FF4005110
:10016C00084802F072FBFB793B7307F10C014FF46A
:10017C007A730122044803F015F800BF1037BD460E
:10018C0080BD00BF000C01403018002080B584B049
:10019C0000AF0346FB7101224FF40051084802F0F6
:1001AC0054FBFB793B7307F10C014FF47A7301227A
:1001BC00044802F0F7FF00BF1037BD4680BD00BFFA
:1001CC00000C01403018002080B584B000AF03460D
:1001DC000A46FB711346BB7101224FF400510948CA
:1001EC0002F033FBFB793B73BB797B7307F10C019A
:1001FC004FF47A730222044802F0D4FF00BF103788
:10020C00BD4680BD000C01403018002080B500AF09
:10021C0001224FF48051334802F017FB012002F009
:10022C0071F800224FF480512E4802F00EFB0A2088
:10023C0002F068F801224FF480512A4802F005FBC5
:10024C00782002F05FF80120FFF782FF962002F081
:10025C0059F81120FFF77CFF4FF4FA7002F052F8B6
:10026C003A20FFF775FF5520FFF790FF0A2002F0A8
:10027C0049F83620FFF76CFF0020FFF787FF2A2094
:10028C00FFF766FF0020FFF781FF0020FFF77EFFDE
:10029C000020FFF77BFFF020FFF778FF2B20FFF704
:1002AC0057FF0020FFF772FF0020FFF76FFF0020C1
:1002BC00FFF76CFFF020FFF769FF2120FFF748FFE5
:1002CC000A2002F01FF81320FFF742FF0A2002F069
:1002DC0019F82920FFF73CFF4FF4FA7002F012F8DE
:1002EC0000BF80BD000C014090B585B000AF044646
:1002FC00084611461A462346FB710346BB710B4652
:10030C007B7113463B71FB79FB817B79BB81BB799C
:10031C007B813B793B812A20FFF71AFFFB891B0A63
:10032C009BB2DBB21846FFF731FFFB89DBB21846F4
:10033C00FFF72CFFBB891B0A9BB2DBB21846FFF7F9
:10034C0025FFBB89DBB21846FFF720FF2B20FFF7F8
:10035C00FFFE7B891B0A9BB2DBB21846FFF716FF28
:10036C007B89DBB21846FFF711FF3B891B0A9BB256
:10037C00DBB21846FFF70AFF3B89DBB21846FFF7E2
:10038C0005FF2C20FFF7E4FE00BF1437BD4690BDDF
:10039C0080B582B000AF0346FB800B46BB80134692
:1003AC007B80B7F90630002B24DBB7F90630EF2B36
:1003BC0020DCB7F90430002B1CDBB7F90430EF2B31
:1003CC0018DCFB88D8B2BB88D9B2FB88DBB201330E
:1003DC00DAB2BB88DBB20133DBB2FFF785FF7B8877
:1003EC001B0A9BB2DBB27A88D2B211461846FFF7D1
:1003FC00EBFE00E000BF0837BD4680BD90B585B070
:10040C0000AF0446084611461A462346FB800346B5
:10041C00BB800B467B8013463B80B7F90630EF2B35
:10042C0059DCB7F90430EF2B55DCB7F90620B7F9D6
:10043C0002301344F02B04DDFB88C3F1F0039BB2B4
:10044C007B80B7F90420B7F900301344F02B04DD9E
:10045C00BB88C3F1F0039BB23B80FB88D8B2BB884E
:10046C00D9B2FB88DAB27B88DBB21344DBB2013B36
:10047C00DCB2BB88DAB23B88DBB21344DBB2013BA3
:10048C00DBB22246FFF730FF3B8C1B0A9BB2FB739F
:10049C003B8CBB733B88BB8018E07B88FB800BE0FC
:1004AC00BA7BFB7B11461846FFF78EFEB7F9063078
:1004BC009BB2013B9BB2FB80B7F90630002BEFDC03
:1004CC00B7F904309BB2013B9BB2BB80B7F9043047
:1004DC00002BE2DC00E000BF1437BD4690BD0000ED
:1004EC0090B587B002AF0446084611461A4623461B
:1004FC00FB800346BB800B46FB7013463B80B7F971
:10050C000630EF2B00F3CF80B7F90430EF2B00F35C
:10051C00CA80B7F9061097F8242013465B001344E1
:10052C005B000B44002B40F3BE80B7F9042097F816
:10053C002430DB001344002B40F3B5800023FB7305
:10054C00ABE097F90F30052B02D10023BB730BE006
:10055C00FB78A3F1200213469B001A4497F90F3045
:10056C001344534AD35CBB7300237B738AE0BB7B7D
:10057C0003F00103002B3CD097F82430012B12D14F
:10058C0097F90F309AB2FB8813449BB218B297F9C3
:10059C000D309AB2BB8813449BB21BB23A881946F1
:1005AC00FFF7F6FE65E097F90F309BB297F8242021
:1005BC0092B202FB03F39AB2FB8813449BB218B2BB
:1005CC0097F90D309BB297F8242092B202FB03F3FB
:1005DC009AB2BB8813449BB219B297F824301AB262
:1005EC0097F824301CB23B8800932346FFF706FF94
:1005FC003FE03A8C3B889A423BD097F82430012B51
:10060C0012D197F90F309AB2FB8813449BB218B2EF
:10061C0097F90D309AB2BB8813449BB21BB23A8C3B
:10062C001946FFF7B5FE24E097F90F309BB297F807
:10063C00242092B202FB03F39AB2FB8813449BB2C0
:10064C0018B297F90D309BB297F8242092B202FBA6
:10065C0003F39AB2BB8813449BB219B297F82430B7
:10066C001AB297F824301CB23B8C00932346FFF748
:10067C00C5FEBB7B5B08BB7397F90D30DBB2013356
:10068C00DBB27B7397F90D30072B7FF770AF97F9BF
:10069C000F30DBB20133DBB2FB7397F90F30052B54
:1006AC007FF74FAF00E000BF1437BD4690BD00BFD1
:1006BC00A849000890B587B002AF3A601A460346C5
:1006CC00FB710B46BB711346BB80FB79FB73BB798B
:1006DC00BB733868FFF734FD03467B810023BB8175
:1006EC0049E0294B1B78002B20D0F97B97F824206C
:1006FC0013469B0013440B44F02B17DD0023FB73B4
:10070C0097F824301A46D200D31ADAB2BB7B1344C2
:10071C00DBB20333BB73BB7BF02B01D9F023BB7370
:10072C00BB893A6813441B78202B20D0FB7B18B272
:10073C00BB7B19B2BB893A6813441A78BC8897F80A
:10074C00243001933B8C00932346FFF7C9FE97F8A6
:10075C0024301A46520013445B00DAB2FB7B13447C
:10076C00FB73FB7BF02B03D9F023FB7300E000BF82
:10077C00BB890133BB81BA897B899A42B1D300BF53
:10078C0000BF1437BD4690BDD018002090B585B081
:10079C0000AF0446084611461A462346FB80034622
:1007AC00BB800B467B8013463B80FB88EF2B5BD8D2
:1007BC00BB88EF2B58D8FA887B881344002B53DD69
:1007CC00BA883B881344002B4EDD0023FB8146E0A6
:1007DC000023BB813CE0FB88DAB2BB89DBB213445B
:1007EC00D8B2BB88DAB2FB89DBB21344D9B2FB882E
:1007FC00DAB2BB89DBB21344DBB20133DCB2BB88A7
:10080C00DAB2FB89DBB21344DBB20133DBB2224632
:10081C00FFF76AFD01224FF40051154802F015F85C
:10082C003B6A1B881B0A9BB2DBB23B723B6A1B8880
:10083C00DBB27B7207F108014FF47A7302220D4888
:10084C0002F0B0FC3B6A02333B62BB890133BB81D3
:10085C00BA897B889A42BED3FB890133FB81FA8922
:10086C003B889A42B4D300E000BF1437BD4690BD1C
:10087C00000C01403018002080B483B000AF034658
:10088C00FB71FB79002B01D1334B5FE0FB79012B22
:10089C0001D1324B5AE0FB79022B01D1304B55E0A0
:1008AC00FB79032B01D12F4B50E0FB79042B01D1A9
:1008BC002D4B4BE0FB79052B01D12C4B46E0FB7902
:1008CC00062B01D12A4B41E0FB79072B01D1294B97
:1008DC003CE0FB79082B01D1274B37E0FB79092B46
:1008EC0001D1264B32E0FB790A2B01D1244B2DE0B0
:1008FC00FB790B2B01D1234B28E0FB790C2B01D17D
:10090C00214B23E0FB790D2B01D1204B1EE0FB7911
:10091C000E2B01D11E4B19E0FB790F2B01D11D4B76
:10092C0014E0FB79102B01D11B4B0FE0FB79112B41
:10093C0001D11A4B0AE0FB79122B01D1184B05E0BF
:10094C00FB79132B01D1174B00E0002318460C3711
:10095C00BD4680BC704700BF801700205417002094
:10096C001C170020EC160020B41600206C1600207A
:10097C0034160020D4150020A81500205015002096
:10098C00FC140020B414002074140020481400201F
:10099C0008140020B81300208C1300204C130020E6
:1009AC000C130020C4120020F0B589B002AF03462E
:1009BC003A60FB710B46BB71FE793346013BFB6021
:1009CC00F3B200221C4615464FF000024FF0000314
:1009DC00EB0043EA5473E2005F4AFB7913705F4A01
:1009EC00BB7913705E4B00221A705E4B00221A808A
:1009FC00FB796FF0130202FB03F3F033DA0F1344AD
:100A0C005B10DAB2584B1A70BB796FF0130202FB11
:100A1C0003F3F033DA0F13445B10DAB2524B5A7013
:100A2C0000237B618DE000233B6182E032467B69D1
:100A3C0002FB03F33A681A443B6913441B78FB72BC
:100A4C0032467B6902FB03F33A681A443B69134450
:100A5C001B78062B07D13B69DAB2444B1A707B69C1
:100A6C00DAB2434B1A703E4B1B78042B36D8FB7A08
:100A7C00042B02D0FB7A052B30D1FB7A052B0CBF53
:100A8C0001230023DAB2364B1B7819461046394A3B
:100A9C000B465B000B441344023302461A70304B76
:100AAC001B7819463B69D8B2324A0B465B000B44A3
:100ABC00134402461A702A4B1B7819467B69D8B22C
:100ACC002C4A0B465B000B441344013302461A704C
:100ADC00234B1B780133DAB2214B1A70FB7A002BB3
:100AEC0024D03B699BB21A46920013449B009AB2E5
:100AFC001D4B1B789BB2134498B27B699BB21A4670
:100B0C00920013449B009AB2174B5B789BB2134430
:100B1C0099B2FB7A013B4FF4487202FB03F3164A7D
:100B2C001344009314231422FFF730FE3B69013366
:100B3C003B61FB793A699A42FFF678AF7B690133E6
:100B4C007B61BB797A699A42FFF66DAF00BF00BF3B
:100B5C001C37BD46F0BD00BFE5180020E61800208C
:100B6C00E3180020EA180020E8180020EC180020F8
:100B7C00ED180020D41800200000002080B582B0B1
:100B8C0000AF0346FB71FB79002B05D1594A0721B5
:100B9C000620FFF709FFAAE0FB79012B05D1564A85
:100BAC0007210620FFF700FFA1E0FB79022B05D1FE
:100BBC00524A06210920FFF7F7FE98E0FB79032B38
:100BCC0005D14F4A06210820FFF7EEFE8FE0FB7996
:100BDC00042B05D14B4A07210820FFF7E5FE86E0E0
:100BEC00FB79052B05D1484A06210C20FFF7DCFECA
:100BFC007DE0FB79062B05D1444A08210720FFF73D
:100C0C00D3FE74E0FB79072B05D1414A0C21082057
:100C1C00FFF7CAFE6BE0FB79082B05D13D4A072193
:100C2C000620FFF7C1FE62E0FB79092B05D13A4A99
:100C3C0008210B20FFF7B8FE59E0FB790A2B05D1F0
:100C4C00364A09210920FFF7AFFE50E0FB790B2B48
:100C5C0005D1334A08210920FFF7A6FE47E0FB79AE
:100C6C000C2B05D12F4A09210720FFF79DFE3EE0F2
:100C7C00FB790D2B05D12C4A06210720FFF794FE9A
:100C8C0035E0FB790E2B05D1284A07210920FFF707
:100C9C008BFE2CE0FB790F2B05D1254A08210A206D
:100CAC00FFF782FE23E0FB79102B05D1214A0721A7
:100CBC000620FFF779FE1AE0FB79112B05D11E4AAD
:100CCC0009210720FFF770FE11E0FB79122B05D1EB
:100CDC001A4A08210820FFF767FE08E0FB79132B5E
:100CEC0005D1174A08210920FFF75EFE00BF08371F
:100CFC00BD4680BD80170020541700201C17002013
:100D0C00EC160020B41600206C16002034160020BF
:100D1C00D4150020A815002050150020FC1400202C
:100D2C00B41400207414002048140020081400206F
:100D3C00B81300208C1300204C1300200C1300203F
:100D4C00C412002080B485B000AF03460A46FB7184
:100D5C001346BB710023FB731AE0FA7B124913464E
:100D6C005B0013440B441B78FA799A420DD1FA7B41
:100D7C000D4913465B0013440B4401331B78BA79BD
:100D8C009A4202D197F90F3009E0FB7B0133FB73D8
:100D9C00064B1B78FA7B9A42DFD34FF0FF33184691
:100DAC001437BD4680BC7047D4180020E3180020CF
:100DBC002DE9F04F97B002AF034687F83730002388
:100DCC0087F84F3011E18F4B18780346013BBB6419
:100DDC00C3B20022BB61FA614FF000024FF0000376
:100DEC00D7E906452946CB00214643EA51732146F3
:100DFC00CA000646844B19780B46013B7B64C3B290
:100E0C0000223B617A61CBB20022BB60FA60D7E969
:100E1C0004010B46D7E90245224602FB03F22B469E
:100E2C0084460CFB03F3134402462146A2FB0189C2
:100E3C004B4499464FF000024FF000034FEAC903B0
:100E4C0043EA58734FEAC8026E4B19786E4B187808
:100E5C000B46013B3B64CBB200223B627A624FF003
:100E6C0000024FF000037C6AE300D7E90845A44672
:100E7C0043EA5C73E2000346013BFB63CBB2002206
:100E8C003B607A60C3B200229A469346D7E90001D0
:100E9C000B460AFB03F2034603FB0BF31344024617
:100EAC00A2FB0A21F962BA62FA6A1344FB624FF0A0
:100EBC0000024FF00003D7E90A452946CB00204633
:100ECC002946044643EA54730146CA004F4B1B782B
:100EDC001846FFF7D1FCB86397F84F204C491346DE
:100EEC005B0013440B4401331B78184697F84F20D2
:100EFC00474913465B0013440B441B781946BB6BE4
:100F0C0006FB00F20B4413441B78032B1AD097F802
:100F1C004F203F4913465B0013440B4401331B78AD
:100F2C00184697F84F203A4913465B0013440B447C
:100F3C001B781946BB6B06FB00F20B4413441B7861
:100F4C00052B01D1012300E0002397F84F20D8B2E4
:100F5C002F4913465B0013440B449A1C0346137031
:100F6C0097F84F202A4913465B0013440B441B7817
:100F7C009BB21A4613469B0013449B009AB2254B16
:100F8C001B789BB213449EB297F84F20204913460E
:100F9C005B0013440B4401331B789BB21A46134677
:100FAC009B0013449B009AB21A4B5B789BB2134480
:100FBC0098B297F84F20164913465B0013440B4424
:100FCC0002331B78DA1C4FF4487303FB02F2124B0A
:100FDC00134400931423142201463046FFF7D6FB2A
:100FEC0097F84F30013387F84F300C4B1A7897F83D
:100FFC004F309342FFF4E7AE00BF00BF5437BD46FD
:10100C00BDE8F08FE5180020E6180020E418002059
:10101C00D4180020E818002000000020E31800205D
:10102C002DE9F04F91B000AF604B93F800C06346D0
:10103C00013BBB635FFA8CF30022184611464FF05C
:10104C0000024FF00003CB0043EA5073C200664627
:10105C00574B19780B46013B7B635FFA8CF30022EC
:10106C003B617A61CBB20022BB61FA61D7E9040122
:10107C000B46BA6902FB03F2FB6984460CFB03F3D3
:10108C0013440246B969A2FB01894B4499464FF0BF
:10109C0000024FF000034FEAC90343EA58734FEACA
:1010AC00C802424B1978424B93F800C00B46013BE7
:1010BC003B63CBB20022BB60FA604FF000024FF0F2
:1010CC000003D7E902894846C300404643EA5073FF
:1010DC004046C2006346013BFB62CBB200223B6040
:1010EC007A605FFA8CF300229A469346D7E90001A6
:1010FC000B460AFB03F2034603FB0BF313440246B5
:10110C00A2FB0A452B441D464FF000024FF0000392
:10111C00EB0043EA5473E200264B1B781846FFF7AA
:10112C00ABFBB862002387F83F3033E097F83F20E1
:10113C00214913465B0013440B441B7887F8273076
:10114C0097F83F201C4913465B0013440B440133B2
:10115C001B7887F8263097F8263097F82720B96A3D
:10116C0006FB03F30A4413441B78032B0DD097F8AA
:10117C00263097F82720B96A06FB03F30A44134478
:10118C001B78052B01D000230BE097F83F3001337F
:10119C0087F83F30094B1B7897F83F209A42C5D30C
:1011AC00012318464437BD46BDE8F08FE5180020F2
:1011BC00E6180020E4180020D4180020E3180020C2
:1011CC0080B586B002AF0F4B1B881A463B1D0E49EB
:1011DC00184602F0BFFC00230093F023F0220021FC
:1011EC000020FFF70BF93A1D032301930023009312
:1011FC004FF6FF736C211E20FFF75CFA00BF10370F
:10120C00BD4680BDEA1800207849000880B586B03C
:10121C0002AF0F4B1B785A1C3B1D0E49184602F0AF
:10122C0099FC00230093F023F02200210020FFF70B
:10123C00E5F83A1D03230193002300934FF6FF7347
:10124C006C212720FFF736FA00BF1037BD4680BD52
:10125C00E41800208449000880B584B002AF0B4B21
:10126C001B785A1C3B460A49184602F073FC3A4656
:10127C0005230193002300934FF6FF7364211E2076
:10128C00FFF718FA00BF0837BD4680BDE4180020F0
:10129C00904900082DE9F04F95B002AF034687F84E
:1012AC002F308E4B1B781846FFF782FD8C4B18782D
:1012BC000346013B7B64C3B200221C4615464FF02B
:1012CC0000024FF00003EB0043EA5473E2000446C3
:1012DC00844B19780B46013B3B64C3B200223B6242
:1012EC007A62CBB20022BB61FA61D7E908010B46E6
:1012FC00D7E906562A4602FB03F2334684460CFB1A
:10130C0003F3134402462946A2FB01AB5B449B4604
:10131C004FF000024FF000034FEACB0343EA5A733D
:10132C004FEACA026E4B19786E4B18780B46013B8C
:10133C00FB63CBB200223B617A614FF000024FF0AD
:10134C000003D7E904AB5D46EB00554643EA557301
:10135C005546EA000346013BBB63CBB20022BB609F
:10136C00FA60C3B200223B607A60D7E902010B46F7
:10137C00D7E900AB524602FB03F25B46054605FB80
:10138C0003F3134402465146A2FB01894B44994690
:10139C004FF000024FF000034FEAC90343EA5873C1
:1013AC004FEAC8024D4B1B781846FFF765FA786375
:1013BC004D4B1B7818464D4B1B7819467A6B04FB2A
:1013CC0000F30A4413441B78032B0DD0464B1B78B7
:1013DC001846464B1B7819467A6B04FB00F30A44FB
:1013EC0013441B78052B20D1404B1B789BB21A461B
:1013FC00920013449B009AB23D4B1B789BB2134452
:10140C0098B2394B1B789BB21A46920013449B003E
:10141C009AB2374B5B789BB2134499B2354B00931D
:10142C0014231422FFF7B2F91FE0304B1B789BB248
:10143C001A46920013449B009AB22D4B1B789BB218
:10144C00134498B2284B1B789BB21A469200134453
:10145C009B009AB2264B5B789BB2134499B2264BF5
:10146C00009314231422FFF791F997F82F30012BD6
:10147C0040F08E801D4B1A781B4B1B78013BDBB266
:10148C0019461046FFF75EFC034687F83030164BC2
:10149C001B78002B00F00A8297F93030B3F1FF3F34
:1014AC002ED1114B1B78013B104A127811467A6BE6
:1014BC0004FB03F30A4413441B78012B40F2F6811E
:1014CC00094B1B78013BDAB2074B1A700B4B1B888C
:1014DC0001339AB2094B1A80E8E100BFE4180020EE
:1014EC00E5180020E6180020ED180020EC1800206C
:1014FC00E81800204006002020030020EA180020F5
:10150C00A64B1B78022B40F2D18197F93030002B7F
:10151C00C0F2CC81A24B1A78A04B1B78023BDBB2F9
:10152C0019461046FFF70EFC0346B3F1FF3F40F09F
:10153C00BD819A4B1B78023B994A127811467A6B03
:10154C0004FB03F30A4413441B78012B40F2AE81D5
:10155C0097F93020934913465B0013440B44013335
:10156C001B78013BD8B28F4913465B0013440B44E4
:10157C00013302461A70894B1B78013BDAB2874B58
:10158C001A70894B1B8801339AB2874B1A808DE1F4
:10159C0097F82F30022B40F08380814B1A787F4BC9
:1015AC001B780133DBB219461046FFF7CBFB034621
:1015BC0087F83130794B1B781A467C4B1B78013BF2
:1015CC009A4280F2738197F93130B3F1FF3F1BD10E
:1015DC00724B1B780133724A127811467A6B04FBFA
:1015EC0003F30A4413441B78012B40F25F816B4BCD
:1015FC001B780133DAB2694B1A706B4B1B880133C1
:10160C009AB2694B1A8051E1644B1B781A46674BAE
:10161C001B78033B9A4280F2498197F93130002BB9
:10162C00C0F244815E4B1A785C4B1B780233DBB200
:10163C0019461046FFF786FB0346B3F1FF3F40F017
:10164C003581564B1B780233554A127811467A6B0A
:10165C0004FB03F30A4413441B78012B40F226814C
:10166C0097F931204F4913465B0013440B44013367
:10167C001B780133D8B24B4913465B0013440B441F
:10168C00013302461A70454B1B780133DAB2434BD7
:10169C001A70454B1B8801339AB2434B1A8005E1F3
:1016AC0097F82F30032B40F083803D4B1B78013B88
:1016BC00DBB23A4A127811461846FFF743FB034651
:1016CC0087F83230364B1B78002B00F0EF8097F9FF
:1016DC003230B3F1FF3F1BD1304B1B781846304BE7
:1016EC001B785A1E796B04FB00F30A4413441B78D5
:1016FC00012B40F2DB802A4B1B78013BDAB2284BE2
:10170C001A70294B1B8801339AB2274B1A80CDE0F3
:10171C00234B1B78022B40F2C98097F93230002BF7
:10172C00C0F2C4801E4B1B78023BDBB21B4A127802
:10173C0011461846FFF706FB0346B3F1FF3F40F096
:10174C00B580164B1B781846154B1B789A1E796B77
:10175C0004FB00F30A4413441B78012B40F2A680CF
:10176C0097F932200F4913465B0013440B441B7846
:10177C00013BD8B20B4913465B0013440B440246A1
:10178C001A70074B1B78013BDAB2054B1A70064BEB
:10179C001B8801339AB2044B1A8087E0ED180020A5
:1017AC00EC180020D4180020EA180020E6180020BD
:1017BC0097F82F30042B79D1514B1B780133DBB2C6
:1017CC00504A127811461846FFF7BCFA034687F8C0
:1017DC0033304B4B1B781A464B4B1B78013B9A42D0
:1017EC0064DA97F93330B3F1FF3F1AD1454B1B78CC
:1017FC001846434B1B785A1C796B04FB00F30A44C4
:10180C0013441B78012B51D93D4B1B780133DAB2B1
:10181C003B4B1A703D4B1B8801339AB23B4B1A80E1
:10182C0044E0374B1B781A46374B1B78033B9A42E4
:10183C003CDA97F93330002B38DB314B1B78023311
:10184C00DBB2304A127811461846FFF77BFA034692
:10185C00B3F1FF3F2AD12B4B1B781846284B1B7832
:10186C009A1C796B04FB00F30A4413441B78012B7C
:10187C001CD997F93320264913465B0013440B44BB
:10188C001B780133D8B2224913465B0013440B4436
:10189C0002461A701A4B1B780133DAB2184B1A70C5
:1018AC001A4B1B8801339AB2184B1A80194B1B78B0
:1018BC001846FFF77DFA124B1B789BB21A46920022
:1018CC0013449B009AB2144B1B789BB2134498B2EE
:1018DC000C4B1B789BB21A46920013449B009AB295
:1018EC000D4B5B789BB2134499B20C4B00931423B1
:1018FC001422FEF74BFF00BF4C37BD46BDE8F08FFE
:10190C00EC180020ED180020E5180020EA18002043
:10191C00D4180020E4180020E8180020A00F0020A4
:10192C0080B582B000AF7860391D4FF6FF7301228D
:10193C00034801F071FE7B6818460837BD4680BD30
:10194C008818002080B582B002AF00F079FC00F05E
:10195C0097F900F03BFA00F0D9F900F00DFA0022EB
:10196C002021AC4800F071FF01224FF40051AA482D
:10197C0000F06BFFA94802F0E5F8FEF747FC0023E6
:10198C000093F023F02200210020FEF737FDFFF733
:10199C0063FCA34B1B78002B40F0BA801021A148AC
:1019AC0000F03CFF0346002B0ED19F4B1B78002B05
:1019BC0040F0AE809C4B01221A709C4B01221A7095
:1019CC00052000F09FFCA3E02021964800F026FFA4
:1019DC000346002B0ED1944B1B78002B40F09880C3
:1019EC00914B01221A70914B02221A70052000F0C3
:1019FC0089FC8DE040218B4800F010FF0346002B42
:101A0C000ED1894B1B78002B40F08280864B012233
:101A1C001A70864B03221A70052000F073FC77E0D5
:101A2C008021804800F0FAFE0346002B0DD17E4B3E
:101A3C001B78002B6CD17C4B01221A707B4B04223F
:101A4C001A70052000F05EFC62E04FF4807175485E
:101A5C0000F0E4FE0346002B30D1734B1B78002BB7
:101A6C0056D1714B01221A70714B1B78002B0DD083
:101A7C0000230093F023F02200210020FEF7BEFC8F
:101A8C006C4B1B781846FFF779F809E0002300939C
:101A9C00F023F02200210020FEF7B0FCFFF7DCFB66
:101AAC00634B1B78002B0CBF01230023DBB21A46BF
:101ABC005F4B1A70052000F025FC29E04FF40071F3
:101ACC00584800F0ABFE0346002B1BD1564B1B783D
:101ADC00002B1DD1544B01221A70554B1B78002B37
:101AEC000CD100230093F023F02200210020FEF7FC
:101AFC0085FC504B1B781846FFF740F8052000F08A
:101B0C0001FC05E0494B00221A70474B00221A7069
:101B1C00464B1B78002B3FF43CAF454B1B78002BFE
:101B2C002FD0424B1B78032B10D1424B1B78002B30
:101B3C0008D0404B1B78013BDAB23E4B1A70FFF7D2
:101B4C008BFB1AE03B4B13221A7016E0374B1B78B9
:101B5C00042B12D1374B1B785A1C374B83FB0213C7
:101B6C00D910D317C91A0B469B000B449B00D11AF2
:101B7C00CAB2304B1A70FFF76FFB2C4B00221A7055
:101B8C0077E02A4B1B781846FFF784FBFFF748FADF
:101B9C000346002B6AD0224B01221A70224B0022E2
:101BAC001A70FFF70DFB4FF47A7000F0ABFB214B72
:101BBC001B785A1C204B83FB0213D910D317C91A5C
:101BCC000B469B000B449B00D11ACAB2194B1A70DE
:101BDC00184B1B78002B33D1052301930023009362
:101BEC004FF6FF73154A64211E20FEF763FD4FF478
:101BFC007A7000F087FB0E4B01221A7000230093C1
:101C0C00F023F02200210020FEF7F8FBFFF724FB65
:101C1C0029E000BF0008014000100140984900086D
:101C2C00F0180020000C0140EF180020EE180020E6
:101C3C00C0120020E418002067666666A049000800
:101C4C00FFF7E4FA4FF47A7000F05CFB002300938A
:101C5C00F023F02200210020FEF7D0FB054B1B786F
:101C6C001846FEF78BFF044B00221A70034B002220
:101C7C001A708EE6E4180020F0180020EE180020F0
:101C8C0080B590B000AF07F1180328220021184648
:101C9C0002F058F83B1D00221A605A609A60DA6014
:101CAC001A610123BB614FF48033FB6100233B625B
:101CBC000123BB6202237B634FF48033BB634FF47D
:101CCC00E013FB6307F11803184600F0D7FD034639
:101CDC00002B01D000F0F6F80F237B600223BB60D1
:101CEC000023FB604FF4A0633B6100237B613B1D31
:101CFC000221184601F044F80346002B01D000F0F5
:101D0C00E1F800BF4037BD4680BD000080B500AF94
:101D1C00174B184A1A60164B4FF482725A60144BC8
:101D2C0000229A60124B0022DA60114B02221A61D7
:101D3C000F4B01225A610E4B4FF400729A610C4BFF
:101D4C000822DA610A4B00221A62094B00225A62FD
:101D5C00074B00229A62064B0A22DA62044801F011
:101D6C009DF90346002B01D000F0ACF800BF80BDFC
:101D7C00301800200030014080B500AF114B124AE2
:101D8C001A60104B4FF4E1325A600E4B00229A60ED
:101D9C000C4B0022DA600B4B00221A61094B0C220F
:101DAC005A61084B00229A61064B0022DA61054801
:101DBC0001F0E2FB0346002B01D000F083F800BFDA
:101DCC0080BD00BF881800200044004080B588B05A
:101DDC0000AF07F1100300221A605A609A60DA60B3
:101DEC00354B9B69344A43F010039361324B9B692A
:101DFC0003F01003FB60FB682F4B9B692E4A43F0EA
:101E0C00200393612C4B9B6903F02003BB60BB68E0
:101E1C00294B9B69284A43F004039361264B9B6929
:101E2C0003F004037B607B68234B9B69224A43F0DD
:101E3C0008039361204B9B6903F008033B603B68EC
:101E4C0000224FF400511D4800F0FFFC00224FF41B
:101E5C0040511B4800F0F9FC4FF400533B61012347
:101E6C007B610023BB610223FB6107F11003194660
:101E7C00124800F04FFB4FF440533B6101237B6150
:101E8C000023BB610223FB6107F1100319460C48C8
:101E9C0000F040FB4FF47C733B6100237B6101231A
:101EAC00BB6107F110031946054800F033FB00BF76
:101EBC002037BD4680BD00BF00100240001001401D
:101ECC00000C014080B400AF72B600BFFEE700000A
:101EDC0080B485B000AF154B9B69144A43F00103E5
:101EEC009361124B9B6903F00103BB60BB680F4B02
:101EFC00DB690E4A43F08053D3610C4BDB6903F072
:101F0C0080537B607B680A4B5B68FB60FB6823F04B
:101F1C00E063FB60FB6843F08063FB60044AFB6892
:101F2C00536000BF1437BD4680BC704700100240A0
:101F3C000000014080B588B000AF786007F1100355
:101F4C0000221A605A609A60DA607B681B681B4A30
:101F5C0093422FD11A4B9B69194A43F480539361D6
:101F6C00174B9B6903F48053FB60FB68144B9B6914
:101F7C00134A43F004039361114B9B6903F0040370
:101F8C00BB60BB68A0233B6102237B610323FB6125
:101F9C0007F1100319460B4800F0BCFA40233B61D3
:101FAC0000237B610023BB6107F110031946054830
:101FBC0000F0B0FA00BF2037BD4680BD00300140B4
:101FCC00001002400008014080B588B000AF786076
:101FDC0007F1100300221A605A609A60DA607B687D
:101FEC001B681B4A93422FD11A4BDB69194A43F4E5
:101FFC000033D361174BDB6903F40033FB60FB68E0
:10200C00144B9B69134A43F004039361114B9B6976
:10201C0003F00403BB60BB6804233B6102237B61B8
:10202C000323FB6107F1100319460B4800F072FA09
:10203C0008233B6100237B610023BB6107F1100384
:10204C001946054800F066FA00BF2037BD4680BD32
:10205C0000440040001002400008014080B400AF72
:10206C00FEE780B400AFFEE780B400AFFEE780B4BB
:10207C0000AFFEE780B400AFFEE780B400AF00BF56
:10208C00BD4680BC704780B400AF00BFBD4680BC6D
:10209C00704780B400AF00BFBD4680BC704780B5B0
:1020AC0000AF00F013F900BF80BD80B586B000AF63
:1020BC00F860B9607A6000237B610AE0AFF30080BE
:1020CC000146BB685A1CBA60CAB21A707B690133EC
:1020DC007B617A697B689A42F0DB7B68184618371B
:1020EC00BD4680BD80B586B000AFF860B9607A603F
:1020FC0000237B6109E0BB685A1CBA601B78184648
:10210C00FFF70EFC7B6901337B617A697B689A422D
:10211C00F1DB7B6818461837BD4680BD80B483B0B0
:10212C0000AF78604FF0FF3318460C37BD4680BCCB
:10213C00704780B483B000AF786039603B684FF46F
:10214C0000525A60002318460C37BD4680BC7047BD
:10215C0080B483B000AF7860012318460C37BD46BD
:10216C0080BC704780B485B000AFF860B9607A600D
:10217C00002318461437BD4680BC704780B586B026
:10218C0000AF7860144A154BD31A7B617B693B61B5
:10219C00134B1B68002B02D1114B124A1A60104BC7
:1021AC001A687B6813443A699A4207D201F018FE08
:1021BC0003460C221A604FF0FF3309E0084B1B68F2
:1021CC00FB60074B1A687B681344054A1360FB6875
:1021DC0018461837BD4680BD005000200004000092
:1021EC00F4180020481A002080B400AF00BFBD4690
:1021FC0080BC7047FFF7F8FF0B480C490C4A0023D2
:10220C0002E0D458C4500433C4188C42F9D3094AA0
:10221C00094C002301E013600432A242FBD301F00D
:10222C00E5FDFFF78FFB704700000020141800201D
:10223C00EC4B000814180020481A0020FEE70000A0
:10224C0080B500AF084B1B68074A43F010031360BE
:10225C00032000F02BF90F2000F008F8FFF738FEF0
:10226C000023184680BD00BF0020024080B582B01C
:10227C0000AF7860124B1A68124B1B7819464FF45A
:10228C007A73B3FBF1F3B2FBF3F3184600F035F9B4
:10229C000346002B01D001230EE07B680F2B0AD8DC
:1022AC00002279684FF0FF3000F00BF9064A7B688A
:1022BC001360002300E0012318460837BD4680BD9B
:1022CC00AC170020B4170020B017002080B400AF6A
:1022DC00054B1B781A46054B1B681344034A1360C5
:1022EC0000BFBD4680BC7047B4170020F818002012
:1022FC0080B400AF024B1B681846BD4680BC7047CB
:10230C00F818002080B584B000AF7860FFF7F0FFBC
:10231C00B8607B68FB60FB68B3F1FF3F05D00A4BEC
:10232C001B781A46FB681344FB6000BFFFF7E0FF05
:10233C000246BB68D31AFA689A42F7D800BF00BFAE
:10234C001037BD4680BD00BFB417002080B485B0E7
:10235C0000AF78607B6803F00703FB600C4BDB6815
:10236C00BB60BA684FF6FF031340BB60FB681A02F0
:10237C00BB68134343F0BF6343F40033BB60044AB0
:10238C00BB68D36000BF1437BD4680BC704700BF2C
:10239C0000ED00E080B400AF044BDB681B0A03F0D7
:1023AC0007031846BD4680BC704700BF00ED00E037
:1023BC0080B483B000AF03463960FB7197F90730E6
:1023CC00002B0ADB3B68DAB20C4997F90730120193
:1023DC00D2B20B4483F800230AE03B68DAB2084916
:1023EC00FB7903F00F03043B1201D2B20B441A76B3
:1023FC0000BF0C37BD4680BC704700BF00E100E059
:10240C0000ED00E080B489B000AFF860B9607A608C
:10241C00FB6803F00703FB61FB69C3F10703042BA3
:10242C0028BF0423BB61FB690433062B02D9FB696B
:10243C00033B00E000237B614FF0FF32BB6902FAE3
:10244C0003F3DA43BB681A407B699A404FF0FF31C3
:10245C007B6901FA03F3D9437B680B40134318469D
:10246C002437BD4680BC704780B582B000AF786021
:10247C007B68013BB3F1807F01D301230FE00A4A53
:10248C007B68013B53600F214FF0FF30FFF790FF4B
:10249C00054B00229A60044B07221A600023184651
:1024AC000837BD4680BD00BF10E000E080B582B0AB
:1024BC0000AF78607868FFF749FF00BF0837BD466A
:1024CC0080BD80B586B000AF0346B9607A60FB73FF
:1024DC0000237B61FFF75EFF78617A68B9687869E1
:1024EC00FFF790FF024697F90F3011461846FFF799
:1024FC005FFF00BF1837BD4680BD80B582B000AF0E
:10250C0078607868FFF7B0FF034618460837BD4679
:10251C0080BD000080B48BB000AF786039600023C0
:10252C007B6200233B6269E101227B6A02FA03F3BE
:10253C00FB613B681B68FA691340BB61BA69FB69B4
:10254C009A4240F058813B685B689A4A93425ED04D
:10255C00984A934275D8984A934258D0964A9342D7
:10256C006FD8964A934252D0944A934269D8944A6F
:10257C0093424CD0924A934263D8924A934246D0AB
:10258C00904A93425DD8122B2AD8122B59D801A20B
:10259C0052F823F01B260008F52500080726000832
:1025AC00492600084F2600084F2600084F26000831
:1025BC004F2600084F2600084F2600084F2600081B
:1025CC004F2600084F2600084F2600084F2600080B
:1025DC004F2600084F260008FD250008112600088C
:1025EC00794A934213D02CE03B68DB683B6229E0CC
:1025FC003B68DB6804333B6224E03B68DB680833F0
:10260C003B621FE03B68DB680C333B621AE03B68C3
:10261C009B68002B02D104233B6213E03B689B6850
:10262C00012B05D108233B627B68FA691A6109E02A
:10263C0008233B627B68FA695A6103E000233B6222
:10264C0000E000BFBB69FF2B01D87B6801E07B6811
:10265C0004337B61BB69FF2B02D87B6A9B0002E0D1
:10266C007B6A083B9B003B617B691A680F213B69C5
:10267C0001FA03F3DB431A40396A3B6901FA03F3AD
:10268C001A437B691A603B685B6803F08053002B2C
:10269C0000F0B1804D4B9B694C4A43F001039361B0
:1026AC004A4B9B6903F00103BB60BB68484A7B6AD9
:1026BC009B08023352F82330FB607B6A03F0030360
:1026CC009B000F2202FA03F3DB43FA681340FB6012
:1026DC007B68404A934213D07B683F4A93420DD0AB
:1026EC007B683E4A934207D07B683D4A934201D1B6
:1026FC00032306E0042304E0022302E0012300E0AC
:10270C0000237A6A02F0030292009340FA681343A2
:10271C00FB602F497B6A9B080233FA6841F823203F
:10272C003B685B6803F48013002B06D02D4B9A6832
:10273C002C49BB6913438B6006E02A4B9A68BB6932
:10274C00DB43284913408B603B685B6803F4001340
:10275C00002B06D0234BDA682249BB691343CB60AC
:10276C0006E0204BDA68BB69DB431E491340CB60A3
:10277C003B685B6803F40033002B06D0194B5A6896
:10278C001849BB6913434B6006E0164B5A68BB698A
:10279C00DB43144913404B603B685B6803F48033A4
:1027AC00002B21D00F4B1A680E49BB6913430B60E9
:1027BC0021E000BF00003210000031100000221098
:1027CC000000211000001210000011100010024037
:1027DC000000014000080140000C014000100140C5
:1027EC0000140140000401400B4B1A68BB69DB4329
:1027FC00094913400B607B6A01337B623B681A68A2
:10280C007B6A22FA03F3002B7FF48EAE00BF00BF6D
:10281C002C37BD4680BC70470004014080B485B0A5
:10282C0000AF78600B467B807B689A687B8813408E
:10283C00002B02D00123FB7301E00023FB73FB7B15
:10284C0018461437BD4680BC704780B483B000AFC7
:10285C0078600B467B8013467B707B78002B03D013
:10286C007A887B681A6103E07B881A047B681A619A
:10287C0000BF0C37BD4680BC7047000080B586B0E9
:10288C0000AF78607B68002B01D1012372E27B687A
:10289C001B6803F00103002B00F08780924B5B68F0
:1028AC0003F00C03042B0CD08F4B5B6803F00C0370
:1028BC00082B12D18C4B5B6803F48033B3F5803F4B
:1028CC000BD1894B1B6803F40033002B6CD07B6855
:1028DC005B68002B68D101234CE27B685B68B3F525
:1028EC00803F06D1804B1B687F4A43F480331360D2
:1028FC002EE07B685B68002B0CD17B4B1B687A4A03
:10290C0023F480331360784B1B68774A23F48023BD
:10291C0013601DE07B685B68B3F5A02F0CD1724B84
:10292C001B68714A43F4802313606F4B1B686E4A1B
:10293C0043F4803313600BE06B4B1B686A4A23F43F
:10294C0080331360684B1B68674A23F48023136041
:10295C007B685B68002B13D0FFF7CAFC386108E07A
:10296C00FFF7C6FC02463B69D31A642B01D903233B
:10297C0000E25D4B1B6803F40033002BF0D014E035
:10298C00FFF7B6FC386108E0FFF7B2FC02463B6982
:10299C00D31A642B01D90323ECE1534B1B6803F4CA
:1029AC000033002BF0D100E000BF7B681B6803F004
:1029BC000203002B63D04C4B5B6803F00C03002B21
:1029CC000BD0494B5B6803F00C03082B1CD1464B16
:1029DC005B6803F48033002B16D1434B1B6803F068
:1029EC000203002B05D07B681B69012B01D001234E
:1029FC00C0E13D4B1B6823F0F8027B685B69DB0090
:102A0C00394913430B603AE07B681B69002B20D0DB
:102A1C00364B01221A60FFF76BFC386108E0FFF7B8
:102A2C0067FC02463B69D31A022B01D90323A1E1AF
:102A3C002D4B1B6803F00203002BF0D02A4B1B68B4
:102A4C0023F0F8027B685B69DB00274913430B60BA
:102A5C0015E0264B00221A60FFF74AFC386108E0AB
:102A6C00FFF746FC02463B69D31A022B01D903231C
:102A7C0080E11D4B1B6803F00203002BF0D17B6837
:102A8C001B6803F00803002B3AD07B689B69002B72
:102A9C0019D0174B01221A60FFF72AFC386108E0A5
:102AAC00FFF726FC02463B69D31A022B01D90323FC
:102ABC0060E10D4B5B6A03F00203002BF0D00120A8
:102ACC0000F0CEFA1CE00A4B00221A60FFF710FC53
:102ADC0038610FE0FFF70CFC02463B69D31A022B5E
:102AEC0008D9032346E100BF001002400000424217
:102AFC0080044242924B5B6A03F00203002BE9D143
:102B0C007B681B6803F00403002B00F0A6800023F5
:102B1C00FB758B4BDB6903F08053002B0DD1884B7D
:102B2C00DB69874A43F08053D361854BDB6903F043
:102B3C008053BB60BB680123FB75824B1B6803F49D
:102B4C008073002B18D17F4B1B687E4A43F4807333
:102B5C001360FFF7CDFB386108E0FFF7C9FB0246B5
:102B6C003B69D31A642B01D9032303E1754B1B6812
:102B7C0003F48073002BF0D07B68DB68012B06D14B
:102B8C006F4B1B6A6E4A43F0010313622DE07B68A6
:102B9C00DB68002B0CD16A4B1B6A694A23F00103DA
:102BAC001362674B1B6A664A23F0040313621CE032
:102BBC007B68DB68052B0CD1614B1B6A604A43F0C8
:102BCC00040313625E4B1B6A5D4A43F001031362FC
:102BDC000BE05B4B1B6A5A4A23F001031362584B00
:102BEC001B6A574A23F0040313627B68DB68002BD3
:102BFC0015D0FFF77DFB38610AE0FFF779FB024641
:102C0C003B69D31A41F28832934201D90323B1E0D4
:102C1C004B4B1B6A03F00203002BEED014E0FFF7C2
:102C2C0067FB38610AE0FFF763FB02463B69D31A86
:102C3C0041F28832934201D903239BE0404B1B6A3B
:102C4C0003F00203002BEED1FB7D012B05D13C4B95
:102C5C00DB693B4A23F08053D3617B68DB69002B33
:102C6C0000F08780364B5B6803F00C03082B61D0B7
:102C7C007B68DB69022B46D1334B00221A60FFF7CD
:102C8C0037FB386108E0FFF733FB02463B69D31A88
:102C9C00022B01D903236DE0294B1B6803F0007351
:102CAC00002BF0D17B681B6AB3F5803F08D1244B15
:102CBC005B6823F400327B689B68214913434B60AB
:102CCC001F4B5B6823F474127B68196A7B685B6A20
:102CDC000B431B4913434B601B4B01221A60FFF73C
:102CEC0007FB386108E0FFF703FB02463B69D31A88
:102CFC00022B01D903233DE0114B1B6803F0007339
:102D0C00002BF0D035E0104B00221A60FFF7F0FAE0
:102D1C00386108E0FFF7ECFA02463B69D31A022B44
:102D2C0001D9032326E0064B1B6803F00073002B2C
:102D3C00F0D11EE07B68DB69012B07D1012319E080
:102D4C000010024000700040600042420B4B5B6878
:102D5C00FB60FB6803F480327B681B6A9A4206D1E5
:102D6C00FB6803F470127B685B6A9A4201D0012302
:102D7C0000E0002318461837BD4680BD0010024005
:102D8C0080B584B000AF786039607B68002B01D1CE
:102D9C000123D0E06A4B1B6803F007033A689A42A0
:102DAC0010D9674B1B6823F0070265493B68134336
:102DBC000B60634B1B6803F007033A689A4201D01F
:102DCC000123B8E07B681B6803F00203002B20D0C2
:102DDC007B681B6803F00403002B05D0594B5B6820
:102DEC00584A43F4E06353607B681B6803F00803A4
:102DFC00002B05D0534B5B68524A43F4605353602D
:102E0C00504B5B6823F0F0027B689B684D49134381
:102E1C004B607B681B6803F00103002B40D07B6880
:102E2C005B68012B07D1474B1B6803F40033002B65
:102E3C0015D101237FE07B685B68022B07D1414BE6
:102E4C001B6803F00073002B09D1012373E03D4B89
:102E5C001B6803F00203002B01D101236BE0394BFB
:102E6C005B6823F003027B685B68364913434B6055
:102E7C00FFF73EFAF8600AE0FFF73AFA0246FB6801
:102E8C00D31A41F28832934201D9032353E02D4BDC
:102E9C005B6803F00C027B685B689B009A42EBD189
:102EAC00274B1B6803F007033A689A4210D2244B55
:102EBC001B6823F0070222493B6813430B60204B2D
:102ECC001B6803F007033A689A4201D0012332E0F1
:102EDC007B681B6803F00403002B08D0194B5B685C
:102EEC0023F4E0627B68DB68164913434B607B6814
:102EFC001B6803F00803002B09D0124B5B6823F40A
:102F0C0060527B681B69DB000E4913434B6000F079
:102F1C0021F802460B4B5B681B0903F00F030A49AF
:102F2C00CB5C22FA03F3094A1360094B1B68184661
:102F3C00FFF79CF9002318461037BD4680BD00BF33
:102F4C000020024000100240844B0008AC17002007
:102F5C00B017002080B487B000AF0023FB600023C3
:102F6C00BB6000237B6100237B6000233B611E4B15
:102F7C005B68FB60FB6803F00C03042B02D0082B8E
:102F8C0003D027E0194B3B6127E0FB689B0C03F057
:102F9C000F03174AD35C7B60FB6803F48033002B70
:102FAC0010D0114B5B685B0C03F00103114AD35C2E
:102FBC00BB607B680D4A03FB02F2BB68B2FBF3F308
:102FCC007B6104E07B680C4A02FB03F37B617B6949
:102FDC003B6102E0054B3B6100BF3B6918461C3767
:102FEC00BD4680BC704700BF0010024000127A0042
:102FFC009C4B0008AC4B000800093D0080B400AFAE
:10300C00024B1B681846BD4680BC7047AC170020AD
:10301C0080B500AFFFF7F2FF0246054B5B681B0A59
:10302C0003F007030349CB5C22FA03F3184680BD77
:10303C0000100240944B000880B500AFFFF7DEFF94
:10304C000246054B5B68DB0A03F007030349CB5CC4
:10305C0022FA03F3184680BD00100240944B00087E
:10306C0080B485B000AF78600A4B1B680A4AA2FB9B
:10307C0003235B0A7A6802FB03F3FB6000BFFB6867
:10308C005A1EFA60002BF9D100BF00BF1437BD46A1
:10309C0080BC7047AC170020D34D621080B582B055
:1030AC0000AF78607B68002B01D1012376E07B6850
:1030BC005B6A002B08D17B685B68B3F5827F09D013
:1030CC007B680022DA6105E07B6800221A617B686C
:1030DC0000225A617B6800229A627B6893F8513017
:1030EC00DBB2002B06D17B68002283F85020786875
:1030FC00FEF720FF7B68022283F851207B681B6857
:10310C001A687B681B6822F040021A607B685B6857
:10311C0003F482727B689B6803F404431A437B6854
:10312C00DB6803F400631A437B681B6903F002033A
:10313C001A437B685B6903F001031A437B689B6944
:10314C0003F400731A437B68DB6903F038031A43FA
:10315C007B681B6A03F0800342EA03017B689B6A6D
:10316C0003F400527B681B680A431A607B689B69F6
:10317C001A0C7B681B6802F004025A607B681B689F
:10318C00DA697B681B6822F40062DA617B680022D2
:10319C005A657B68012283F85120002318460837B2
:1031AC00BD4680BD80B588B000AFF860B9603B60AB
:1031BC001346FB800023FB77FB6893F85030012B00
:1031CC0001D102232DE1FB68012283F85020FFF787
:1031DC008FF8B861FB88FB82FB6893F85130DBB247
:1031EC00012B02D00223FB7716E1BB68002B02D027
:1031FC00FB88002B02D10123FB770DE1FB68032236
:10320C0083F85120FB6800225A65FB68BA681A6380
:10321C00FB68FA889A86FB68FA88DA86FB680022D3
:10322C009A63FB6800229A87FB680022DA87FB68A6
:10323C0000225A64FB6800221A64FB689B68B3F591
:10324C00004F0FD1FB681B681A68FB681B6822F0E3
:10325C0040021A60FB681B681A68FB681B6842F422
:10326C0080421A60FB681B681B6803F04003402B0C
:10327C0007D0FB681B681A68FB681B6842F04002A9
:10328C001A60FB68DB68B3F5006F4FD1FB685B68B5
:10329C00002B02D0FB8A012B42D1FB681B6B1A88D6
:1032AC00FB681B68DA60FB681B6B9A1CFB681A6373
:1032BC00FB68DB8E9BB2013B9AB2FB68DA862FE08F
:1032CC00FB681B689B6803F00203022B12D1FB689E
:1032DC001B6B1A88FB681B68DA60FB681B6B9A1CFB
:1032EC00FB681A63FB68DB8E9BB2013B9AB2FB68EE
:1032FC00DA8615E0FEF7FCFF0246BB69D31A3A6882
:10330C009A4203D83B68B3F1FF3F02D13B68002BD4
:10331C0006D10323FB77FB68012283F851207BE065
:10332C00FB68DB8E9BB2002BCAD150E0FB685B685C
:10333C00002B02D0FB8A012B44D1FB681A6BFB6873
:10334C001B680C3312781A70FB681B6B5A1CFB68D9
:10335C001A63FB68DB8E9BB2013B9AB2FB68DA8680
:10336C0030E0FB681B689B6803F00203022B13D14F
:10337C00FB681A6BFB681B680C3312781A70FB68BD
:10338C001B6B5A1CFB681A63FB68DB8E9BB2013B00
:10339C009AB2FB68DA8615E0FEF7AAFF0246BB6913
:1033AC00D31A3A689A4203D83B68B3F1FF3F02D173
:1033BC003B68002B06D10323FB77FB68012283F8C3
:1033CC00512029E0FB68DB8E9BB2002BC9D1BA6976
:1033DC003968F86800F0B2F80346002B02D0FB689D
:1033EC0020225A65FB689B68002B0AD100233B61A5
:1033FC00FB681B68DB683B61FB681B689B683B6177
:10340C003B69FB685B6D002B02D00123FB7703E06B
:10341C00FB68012283F85120FB68002283F85020BE
:10342C00FB7F18462037BD4680BD000080B588B0B4
:10343C0000AFF860B9603B601346FB71FEF758FFB4
:10344C000246BB6A9B1A3A681344FB61FEF750FFB5
:10345C00B861394B1B685B011B0DFA6902FB03F366
:10346C007B6154E03B68B3F1FF3F50D0FEF740FF67
:10347C000246BB69D31AFA699A4202D9FB69002B3E
:10348C003DD1FB681B685A68FB681B6822F0E002A0
:10349C005A60FB685B68B3F5827F11D1FB689B684F
:1034AC00B3F5004F04D0FB689B68B3F5806F07D170
:1034BC00FB681B681A68FB681B6822F040021A60E4
:1034CC00FB689B6AB3F5005F0FD1FB681B681A6839
:1034DC00FB681B6822F400521A60FB681B681A68B0
:1034EC00FB681B6842F400521A60FB68012283F8E7
:1034FC005120FB68002283F85020032317E07B69DE
:10350C00002B01D10023FB617B69013B7B61FB68D4
:10351C001B689A68BB681340BA689A420CBF0123B7
:10352C000023DBB21A46FB799A429BD10023184642
:10353C002037BD4680BD00BFAC17002080B586B0DB
:10354C0002AFF860B9607A607B680093BB680022B8
:10355C008021F868FFF76AFF0346002B07D0FB6851
:10356C005B6D43F02002FB685A65032300E00023E7
:10357C0018461037BD4680BD80B582B000AF78606C
:10358C007B68002B01D1012342E07B6893F841302A
:10359C00DBB2002B06D17B68002283F840207868D0
:1035AC00FEF712FD7B68242283F841207B681B68A0
:1035BC00DA687B681B6822F40052DA60786800F0E5
:1035CC001DF97B681B681A697B681B6822F49042A2
:1035DC001A617B681B685A697B681B6822F02A0297
:1035EC005A617B681B68DA687B681B6842F400527E
:1035FC00DA607B6800225A647B68202283F84120C1
:10360C007B68202283F842207B6800225A630023C7
:10361C0018460837BD4680BD80B58AB002AFF86049
:10362C00B9603B601346FB8000237B61FB6893F819
:10363C004130DBB2202B6DD1BB68002B02D0FB8854
:10364C00002B01D1012366E0FB6800225A64FB6861
:10365C00212283F84120FEF74BFE7861FB68FA8843
:10366C009A84FB68FA88DA84FB689B68B3F5805F00
:10367C0008D1FB681B69002B04D10023FB61BB68DC
:10368C00BB6103E0BB68FB610023BB612AE03B68C4
:10369C0000937B6900228021F86800F040F8034613
:1036AC00002B01D0032336E0FB69002B0BD1BB6947
:1036BC001B881A46FB681B68C2F308025A60BB6978
:1036CC000233BB6107E0FB691A78FB681B685A6020
:1036DC00FB690133FB61FB68DB8C9BB2013B9AB24B
:1036EC00FB68DA84FB68DB8C9BB2002BCFD13B6888
:1036FC0000937B6900224021F86800F010F8034623
:10370C00002B01D0032306E0FB68202283F8412024
:10371C00002300E0022318462037BD4680BD80B54B
:10372C0090B000AFF860B9603B601346FB7150E09D
:10373C00BB6CB3F1FF3F4CD0BB6C002B07D0FEF73A
:10374C00D7FD02463B68D31ABA6C9A4241D2FB6849
:10375C001B680C33BB62BB6A53E8003F7B627B6A1D
:10376C0023F4D073FB63FB681B680C33FA6B7A632E
:10377C003B63396B7A6B41E80023FB62FB6A002BDD
:10378C00E5D1FB681B6814337B617B6953E8003F10
:10379C003B613B6923F00103BB63FB681B6814337B
:1037AC00BA6B3A62FB61F9693A6A41E80023BB6182
:1037BC00BB69002BE5D1FB68202283F84120FB6814
:1037CC00202283F84220FB68002283F84020032348
:1037DC000FE0FB681B681A68BB681340BA689A4212
:1037EC000CBF01230023DBB21A46FB799A429FD00F
:1037FC00002318464037BD4680BD000080B584B01C
:10380C0000AF78607B681B681B6923F440517B68B0
:10381C00DA687B681B680A431A617B689A687B6864
:10382C001B691A437B685B691343BB607B681B682D
:10383C00DB6823F4B05323F00C037A681268B96880
:10384C000B43D3607B681B685B6923F440717B6816
:10385C009A697B681B680A435A617B681B682C4A0F
:10386C00934203D1FFF7E8FBF86002E0FFF7D0FBCF
:10387C00F860FA6813469B0013449A001A447B685C
:10388C005B689B00B2FBF3F3224AA2FB03235B09A8
:10389C001901FA6813469B0013449A001A447B687A
:1038AC005B689B00B2FBF3F21A4BA3FB02035B09B0
:1038BC00642000FB03F3D31A1B013233154AA2FB1D
:1038CC0003235B0903F0F0031944FA6813469B00C9
:1038DC0013449A001A447B685B689B00B2FBF3F2BA
:1038EC000C4BA3FB02035B09642000FB03F3D31A0C
:1038FC001B013233074AA2FB03235B0903F00F02BF
:10390C007B681B680A449A6000BF1037BD4680BDB7
:10391C00003801401F85EB51002310B50446C0E967
:10392C000033C0E90433836081814366C2818361C3
:10393C00194608225C3000F005FA0D4B24626362D4
:10394C000C4BA3620C4BE3620C4B23630C4B9C4261
:10395C0006D003F16802944202D0D0339C4205D1C8
:10396C0004F15800BDE8104000F064BA10BD00BF6F
:10397C00A13B0008C33B0008FB3B00081F3C0008B0
:10398C00FC180020024A0349034800F069B800BF44
:10399C00B81700200D470008C417002041680C4BD5
:1039AC0010B59942044601D000F0AAFEA168094B5B
:1039BC00994202D0204600F0A3FEE168064B9942E2
:1039CC0004D02046BDE8104000F09ABE10BD00BFE8
:1039DC00FC18002064190020CC19002010B50B4BEA
:1039EC000B4C0C4A20461A6004210022FFF794FF6E
:1039FC0004F1680001220921FFF78EFF04F1D000C9
:103A0C000222BDE810401221FFF786BF341A0020B5
:103A1C00FC18002091390008014800F00CBA00BFD6
:103A2C003D1A0020014800F007BA00BF3D1A0020E3
:103A3C0010B50446FFF7F0FF236A1BB1BDE8104038
:103A4C00FFF7F0BF044B2362044B1B68002BF5D12E
:103A5C00FFF7C4FFF2E700BFA9390008341A0020B1
:103A6C002DE9F8430746884614460026D4E901950B
:103A7C00B9F1010905D52468002CF7D13046BDE811
:103A8C00F883AB89012B07D9B5F90E30013303D07C
:103A9C0029463846C04706436835E9E7036A70B5DE
:103AAC0005460E4684680BB9FFF7C2FF636EDB0751
:103ABC0005D4A389980502D4A06D00F0BCF9A389A4
:103ACC00190713D523698BB1013EA36816F8011FA2
:103ADC00013BA360E9B9002B2EDA22460A212846C5
:103AEC0000F09BF8013007D00A2507E02146284654
:103AFC0000F0D0F80028E7D04FF0FF35636EDA07FE
:103B0C0005D4A3899B0502D4A06D00F095F9284635
:103B1C0070BD002B04DAA2699A4206DC0A2904D093
:103B2C0023685A1C22601970CFE72246284600F001
:103B3C0074F80130C9D1DFE70A2523685A1C2260CA
:103B4C001D70DBE7024B01461868FFF7A7BF00BFEB
:103B5C00101800200EB46FF0004100B59CB01DABE6
:103B6C0002900690079104910848094953F8042BD8
:103B7C000591006802A9019300F0AEFA0022029BA5
:103B8C001A701CB05DF804EB03B0704710180020DD
:103B9C000802FFFF10B50C46B1F90E1000F0FCF84E
:103BAC000028ABBF636DA3891B1823F48053ACBFF3
:103BBC006365A38110BD2DE9F0411F468B89054635
:103BCC00DB050C46164605D502230022B1F90E1072
:103BDC0000F0D0F8A389324623F48053A381284601
:103BEC003B46B4F90E10BDE8F04100F0E7B810B553
:103BFC000C46B1F90E1000F0BDF8431CA38915BF9B
:103C0C00606523F4805343F48053A38118BFA381D0
:103C1C0010BDB1F90E1000F09DB8F8B50E46144663
:103C2C00054618B1036A0BB9FFF702FFA369A3603D
:103C3C00A3891A0725D523691BB323682269F6B219
:103C4C00981A63693746834204DC2146284600F003
:103C5C0057FDE0B9A368013BA36023685A1C22609E
:103C6C001E706269431C9A4204D0A389DB0706D5F7
:103C7C000A2E04D12146284600F042FD38B93846B8
:103C8C00F8BD2146284600F005F80028D5D04FF0A5
:103C9C00FF37F4E738B52A4B054618680C4618B1BF
:103CAC00036A0BB9FFF7C4FEA389B4F90C201807FB
:103CBC0022D4D90607D409232B6042F040034FF0DD
:103CCC00FF30A38134E0580712D5616B41B104F188
:103CDC004403994202D0284600F0B0F800236363F5
:103CEC00A38923F02403A381002363602369236049
:103CFC00A38943F00803A38123694BB9A38903F477
:103D0C002073B3F5007F03D02146284600F045FD13
:103D1C00A089B4F90C2010F001030AD00023A36091
:103D2C0063695B42A361236943B910F08000C4D17D
:103D3C0038BD810758BF6369A360F4E70020F7E73B
:103D4C001018002003460244934200D1704703F838
:103D5C00011BF9E738B50023054D044608462B60D6
:103D6C00FEF7DCF9431C02D12B6803B1236038BD8C
:103D7C00381A002038B50446084611460022054D75
:103D8C002A601A46FEF7EEF9431C02D12B6803B1E8
:103D9C00236038BD381A002038B504460846114651
:103DAC000022054D2A601A46FEF77FF9431C02D10A
:103DBC002B6803B1236038BD381A002038B504468F
:103DCC00084611460022054D2A601A46FEF78AF96C
:103DDC00431C02D12B6803B1236038BD381A002074
:103DEC00014B1868704700BF1018002070B50026F2
:103DFC000C4D0D4C641BA410A64209D100F0AAFD79
:103E0C0000260A4D0A4C641BA410A64205D170BDB5
:103E1C0055F8043B98470136EEE755F8043B9847B4
:103E2C000136F2E7E44B0008E44B0008E44B0008D1
:103E3C00E84B0008704770477047000038B50546DE
:103E4C00002940D051F8043C0C1F002BB8BFE418DB
:103E5C0000F0DCF81C4A136833B963601460284620
:103E6C00BDE8384000F0D8B8A34208D92068211822
:103E7C008B4201BF19685B6809182160EDE71A468F
:103E8C005B680BB1A342FAD911685018A0420BD150
:103E9C0020680144501883421160E0D118685B68B7
:103EAC00084410605360DAE702D90C232B60D6E784
:103EBC00206821188B4201BF19685B6809182160C2
:103ECC0063605460CBE738BD401A002070B50E4ECD
:103EDC000C463168054611B900F0D8FC306021461B
:103EEC00284600F0D3FC431C0AD0C41C24F0030465
:103EFC00A04207D0211A284600F0C8FC013001D19D
:103F0C004FF0FF34204670BD441A00202DE9F843D1
:103F1C00CD1C25F0030508350C2D38BF0C25002DC4
:103F2C00074601DBA94205D90C2300263B6030462D
:103F3C00BDE8F883DFF8D08000F068F8D8F80030DE
:103F4C001C465CBB29463846FFF7C0FF431C0446A1
:103F5C0055D1D8F800402646002E45D1002C48D02B
:103F6C0023683146384604EB030900F08FFC814589
:103F7C003FD1216838466D1A2946FFF7A7FF01305B
:103F8C0037D023682B442360D8F80030002B38D06E
:103F9C005A68A2422BD100225A600FE02268521BB1
:103FAC001FD40B2A17D96119A342256018BF596079
:103FBC00636808BFC8F8001062514B60384604F1C2
:103FCC000B0600F029F826F00706231DF21AAED0D6
:103FDC009B1BA350ABE7A3426268DDD1C8F800205D
:103FEC00ECE723466468ACE734467668B4E71346DE
:103FFC00CCE70C2338463B6000F00EF897E72560C1
:10400C00DCE75B60FFDE00BF401A00200148FFF7D1
:10401C0012BF00BF3C1A00200148FFF70DBF00BFC4
:10402C003C1A00202DE9F0471F468E688246BE429E
:10403C000C4690460B682CD88A8912F4906F26D0C7
:10404C006569096905EB4505A3EB010905EBD57518
:10405C007B1C4B446D109D4238BF1D46530527D524
:10406C002946FFF753FF064660B34A46216900F024
:10407C002BFCA38923F4906343F08003A381266176
:10408C004E4426603E466561A5EB0905A560BE421F
:10409C0000D93E4632464146206800F0BAFB00206B
:1040AC00A3689B1BA360236833442360BDE8F0879F
:1040BC002A4600F017FC06460028E0D1504621693C
:1040CC00FFF7BCFE0C23CAF80030A3894FF0FF3079
:1040DC0043F04003A381E9E72DE9F04F98468B8923
:1040EC0007461B060D4614469DB00ED50B6963B9E9
:1040FC004021FFF70BFF2860286120B90C233B609F
:10410C004FF0FF30D0E040236B6100230993202354
:10411C008DF8293030234FF00109CDF80C80DFF8F1
:10412C00A0818DF82A3023469A4613F8012B0AB148
:10413C00252AF9D1BAEB040B0BD05B462246294653
:10414C003846FFF76FFF013000F0A980099A5A44F6
:10415C0009929AF80030002B00F0A18000234FF058
:10416C00FF32CDE905230AF1010A049307938DF878
:10417C0053301A935446052214F8011B504800F092
:10418C0095FB049AD8B9D00644BF20238DF8533040
:10419C00110744BF2B238DF853309AF800302A2B8B
:1041AC0015D0544600204FF00A0C079A214611F8FE
:1041BC00013B303B092B4DD9B0B1079214E0A0EB79
:1041CC00080309FA03F31343A2460493D2E7039BB3
:1041DC00191D1B680391002BBBBF5B4242F002020E
:1041EC0007930793B8BF049223782E2B0CD16378D6
:1041FC002A2B34D1039B02341A1D1B680392002B0B
:10420C00B8BF4FF0FF330593DFF8B8A00322504638
:10421C00217800F04BFB38B14022049BA0EB0A0044
:10422C00824013430134049314F8011B06222648E0
:10423C008DF8281000F03AFB002838D0234B1BBB1C
:10424C00039B073323F0070308330393099B334481
:10425C00099368E70C4601200CFB0232A6E7002309
:10426C004FF00A0C194601340593204610F8012B27
:10427C00303A092A03D9002BC6D00591C4E704466D
:10428C0001230CFB0121F0E703AB00932A463846CF
:10429C000F4B04A9AFF30080421C0646D6D1AB8964
:1042AC005B063FF52DAF09981DB0BDE8F08F03AB51
:1042BC0000932A463846064B04A900F07DF8EBE73C
:1042CC00AE4B0008B44B0008B84B000800000000CF
:1042DC00314000082DE9F047164699468A680B696B
:1042EC0007469342B8BF1346336091F843200C46FF
:1042FC00DDF820800AB1013333602368990642BF90
:10430C00336802333360256815F0060506D104F1D5
:10431C00190AE36832689B1AAB422BDC94F84320F1
:10432C00131E226818BF0123920630D44946384622
:10433C0004F14302C047013023D02368226903F003
:10434C000603042B14BF002533684FF0000608BF8A
:10435C00E56804F11A0408BFED1A54F8123C08BFC2
:10436C0025EAE5759342C4BF9B1AED18B5421AD1E4
:10437C00002008E00123524649463846C047013028
:10438C0003D14FF0FF30BDE8F0870135C1E7302095
:10439C00E11881F843005A1C94F84510224402336A
:1043AC0082F84310C2E70123224649463846C047EB
:1043BC000130E6D00136D9E72DE9FF470F7E914653
:1043CC00782F80460C469A460C9D01F1430207D883
:1043DC00622F0AD8002F00F0D580582F00F0C18032
:1043EC0004F1420584F842703AE0A7F16303152BFF
:1043FC00F6D801A151F823F05D440008714400087F
:10440C00ED430008ED430008ED430008ED430008C0
:10441C0071440008ED430008ED430008ED4300082B
:10442C00ED430008774500089D440008314500081D
:10443C00ED430008ED43000899450008ED430008E2
:10444C009D440008ED430008ED4300083945000881
:10445C002B681A1D1B682A6004F1420584F842304F
:10446C000123A0E020682B68070603F104012960F2
:10447C0001D51E6803E04606FBD5B3F90060002E9B
:10448C0003DA2D23764284F843300A23594812E08C
:10449C002B682068191D2960050601D51E6802E0ED
:1044AC004106FBD51E886F2F0CBF08230A235148E9
:1044BC00002184F843106568002DA8BF2168A56011
:1044CC00A4BF21F0040121600EB9002D4BD015467C
:1044DC00B6FBF3F103FB1167C75D05F8017D3746A9
:1044EC00BB420E46F4D9082B0BD12368DE0708D546
:1044FC00236961689942DEBF302305F8013C05F160
:10450C00FF35521B22614B4621464046CDF800A098
:10451C0003AAFFF7DFFE01304AD14FF0FF3004B0A1
:10452C00BDE8F087236843F02003236078273248E6
:10453C0084F84570236829681F0651F8046B02D46F
:10454C005F0648BFB6B2DF0748BF43F020032960BF
:10455C0048BF23601EB9236823F020032360102377
:10456C00A6E72448E4E71546BDE72B682668181D26
:10457C006169286035061B6801D5196002E0700678
:10458C00FBD51980002315462361BCE72B6800215D
:10459C001A1D2A601D686268284600F087F908B168
:1045AC00401B606063682361002384F84330AAE7F2
:1045BC002A46494640462369D0470130ADD023688E
:1045CC009B0713D4E068039B9842B8BF1846A6E734
:1045DC000123324649464046D04701309DD0013533
:1045EC00E36803995B1AAB42F2DCEBE7002504F1BC
:1045FC001906F5E7BF4B0008D04B00088A89F8B5BF
:10460C00054610070C4657D44B68002B04DC0B6C8A
:10461C00002B01DC0020F8BDE66A002EFAD0002346
:10462C0012F480522F68216A2B6032D0606DA389FE
:10463C005A0705D56368C01A636B0BB1236CC01A9B
:10464C0000230246E66A2846216AB047431CA38928
:10465C0006D129681D292BD8284A0A41D60727D408
:10466C00002262602269D904226004D5421C01D167
:10467C002B6803B96065616B2F600029CAD004F107
:10468C004403994202D02846FFF7D8FB0020606310
:10469C00C1E701232846B047411CC8D12B68002B29
:1046AC00C5D01D2B01D0162B01D12F60B2E7A389E9
:1046BC0043F04003A381AEE70F69002FAAD0930704
:1046CC0018BF00230E6808BF4B69F61B0F608B6088
:1046DC00002E9FDD33463A462846216AD4F828C07E
:1046EC00E047002806DCA3894FF0FF3043F040037D
:1046FC00A38190E70744361AEAE700BFFEFFBFDF4D
:10470C0038B50B6905460C4613B90025284638BD4B
:10471C0018B1036A0BB9FFF78BF9B4F90C30002B05
:10472C00F3D0626ED00704D4990502D4A06DFFF7C4
:10473C0082FB28462146FFF761FF636E0546DA07C8
:10474C00E4D4A3899B05E1D4A06DFFF775FBDDE7ED
:10475C0070B50C46B1F90E10154600291E4696B0E0
:10476C000CDAA389002113F0800F0CBF4FF4806387
:10477C004023002031602B6016B070BD6A4600F0FB
:10478C0063F80028EDDB019901F47041A1F50053A9
:10479C00594259414FF48063EBE78B8973B59D0700
:1047AC0006460C4607D504F1470323602361012319
:1047BC00636102B070BD6A4601ABFFF7C9FF009997
:1047CC0005463046FFF7A2FB48B9B4F90C309A0500
:1047DC00EFD423F0030343F00203A381E3E7A3899F
:1047EC00206043F08003A381009B20616361019BE7
:1047FC005BB13046B4F90E1000F038F828B1A3893B
:10480C0023F0030343F00103A381A3891D43A58176
:10481C00CFE7884210B501EB020402D9844223464B
:10482C0007D8431EA14208D011F8012B03F8012F21
:10483C00F8E7014602448A4200D110BD13F8014D3D
:10484C0002F8014DF7E7000038B50023064D044689
:10485C00084611462B60FDF76CFC431C02D12B68FB
:10486C0003B1236038BD00BF381A002038B50023CF
:10487C00054D044608462B60FDF76AFC431C02D12B
:10488C002B6803B1236038BD381A002038B50023DB
:10489C00054D044608462B60FDF770FC431C02D105
:1048AC002B6803B1236038BD381A0020034610B5BD
:1048BC00C9B202449342184601D1002003E00478A7
:1048CC0001338C42F6D110BD0A44914200F1FF3302
:1048DC0000D1704710B511F8014B914203F8014F0C
:1048EC00F9D110BD2DE9F041804614460E4621B990
:1048FC001146BDE8F041FFF709BB2AB9FFF79EFA54
:10490C0025462846BDE8F08100F01BF88442074696
:10491C0002D8B4EB500F12D821464046FFF7F6FAF6
:10492C0005460028EDD0BC422246314628BF3A4607
:10493C00FFF7CAFF31464046FFF780FAE1E73546FC
:10494C00DFE751F8043C181F002BBCBF0B58C018F4
:10495C0070470000F8B500BFF8BC08BC9E46704715
:0C496C00F8B500BFF8BC08BC9E467047C0
:104978004D6F7665733A2025690000004C657665B1
:104988006C3A2025690000003C20253269203E0051
:10499800494E49540D000000454E44203A29000074
:1049A800000000000000005F00000007000700147E
:1049B8007F147F14242A7F2A12231308646236493D
:1049C8005620500008070300001C22410000412225
:1049D8001C002A1C7F1C2A08083E0808008070302A
:1049E8000008080808080000606000201008040299
:1049F8003E5149453E00427F40007249494946219F
:104A080041494D331814127F1027454545393C4A12
:104A18004949314121110907364949493646494929
:104A2800291E000014000000403400000008142271
:104A380041141414141400412214080201590906DF
:104A48003E415D594E7C1211127C7F494949363EE0
:104A5800414141227F4141413E7F494949417F09C6
:104A68000909013E414151737F0808087F00417FD1
:104A780041002040413F017F081422417F404040CF
:104A8800407F021C027F7F0408107F3E4141413E67
:104A98007F090909063E4151215E7F0919294626E9
:104AA8004949493203017F01033F4040403F1F20ED
:104AB80040201F3F4038403F6314081463030478C4
:104AC80004036159494D43007F41414102040810E4
:104AD80020004141417F040201020440404040401F
:104AE800000307080020545478407F28444438388D
:104AF80044444428384444287F38545454180008FF
:104B08007E090218A4A49C787F0804047800447DD8
:104B180040002040403D007F1028440000417F4075
:104B2800007C047804787C080404783844444438C9
:104B3800FC1824241818242418FC7C0804040848A9
:104B48005454542404043F44243C4040207C1C20FA
:104B580040201C3C4030403C44281028444C909055
:104B6800907C4464544C44000836410000007700AF
:104B780000004136080002010204020000000000A3
:104B880000000000010203040607080900000000F5
:104B98000102030402030405060708090A0B0C0DA9
:104BA8000E0F10100102232D302B2000686C4C00D2
:104BB8006566674546470030313233343536373815
:104BC8003941424344454600303132333435363773
:0C4BD8003839616263646566000000000B
:044BE4003101000893
:044BE8000D010008B3
:104BEC006552276B276B276B276B276B276B276B04
:104BFC00276B06638552276B276B276B276B276BFD
:104C0C00276B276B276B276B276BAAA4AAA4AAA4D4
:104C1C00AAA4AAA4AAA4AAA4AAA449944773AAA41D
:104C2C00AAA4AAA4AAA4AAA4AAA4AAA4AAA4AAA408
:104C3C00276BAAA4AAA4AAA4AAA4AAA4AAA4AAA4B4
:104C4C00AAA449944773AAA4AAA4AAA4AAA4AAA4ED
:104C5C00AAA4AAA4AAA4AAA4276BAAA4AAA4AAA494
:104C6C00AAA4AAA4AAA4AAA4AAA449944773AAA4CD
:104C7C00AAA4AAA4AAA4AAA4AAA4AAA4AAA4AAA4B8
:104C8C00E66249944994499449946A9449944994A4
:104C9C004994098C076B49944994499449946A94B2
:104CAC004994499449944994276B477347734773C4
:104CBC00276BC65A4773477347734773276B477302
:104CCC0047734773276BC65A4773477347734773CA
:104CDC00AAA4AAA4AAA4AAA449944773AAA4AAA45D
:104CEC00AAA4AAA4AAA4AAA4AAA4AAA4499447734D
:104CFC00AAA4AAA4AAA4AAA4AAA4AAA4AAA4AAA438
:104D0C0049944773AAA4AAA4AAA4AAA4AAA4AAA42C
:104D1C00AAA4AAA449944773AAA4AAA4AAA4AAA41C
:104D2C00AAA4AAA4AAA4AAA449944773AAA4AAA40C
:104D3C00AAA4AAA4AAA4AAA4AAA4AAA449944773FC
:104D4C00AAA4AAA4AAA4AAA46A944994499449948A
:104D5C00098C076B49944994499449946A944994F1
:104D6C0049944994098C076B499449944994499402
:104D7C00A65A4773477347734773276B4773477339
:104D8C004773276BC65A4773477347734773276B31
:104D9C004773477347734773276BAAA4AAA4AAA4A3
:104DAC00AAA4AAA4AAA4AAA4AAA449944773AAA48C
:104DBC00AAA4AAA4AAA4AAA4AAA4AAA4AAA4AAA477
:104DCC00276BAAA4AAA4AAA4AAA4AAA4AAA4AAA423
:104DDC00AAA449944773AAA4AAA4AAA4AAA4AAA45C
:104DEC00AAA4AAA4AAA4AAA4276BAAA4AAA4AAA403
:104DFC00AAA4AAA4AAA4AAA4AAA449944773AAA43C
:104E0C00AAA4AAA4AAA4AAA4AAA4AAA4AAA4AAA426
:104E1C00E66249944994499449946A944994499412
:104E2C004994098C076B49944994499449946A9420
:104E3C004994499449944994276B47734773477332
:104E4C00276BC65A4773477347734773276B477370
:104E5C0047734773276BC65A477347734773477338
:104E6C00AAA4AAA4AAA4AAA449944773AAA4AAA4CB
:104E7C00AAA4AAA4AAA4AAA4AAA4AAA449944773BB
:104E8C00AAA4AAA4AAA4AAA4AAA4AAA4AAA4AAA4A6
:104E9C0049944773AAA4AAA4AAA4AAA4AAA4AAA49B
:104EAC00AAA4AAA449944773AAA4AAA4AAA4AAA48B
:104EBC00AAA4AAA4AAA4AAA449944773AAA4AAA47B
:104ECC00AAA4AAA4AAA4AAA4AAA4AAA4499447736B
:104EDC00AAA4AAA4AAA4AAA4AAA4AAA4AAA4AAA456
:104EEC0049944773AAA4AAA4AAA4AAA4AAA4AAA44B
:104EFC00AAA4AAA449944773AAA4AAA4AAA4AAA43B
:104F0C00B5DEB5DEB5DEB5DE74D653D654D6B5DE19
:104F1C00B5DEB5DEB5DEB5DEB5DEB5DE74D653D6A0
:104F2C0054D6B5DEB5DEB5DEB5DEB5DEB5DEB5DE46
:104F3C00B5DEB5DE95DE95DEB5DEB5DE95DE54D696
:104F4C0074D6B5DEB5DEB5DEB5DEB5DEB5DEB5DE06
:104F5C00B5DE74D654D674D6B5DEB5DE74D654D65A
:104F6C00B5DEB5DEB5DEB5DEB5DEB5DEB5DEB5DE9D
:104F7C00B5DEB5DEB5DEB5DEB5DE95DE95DE95DEED
:104F8C0074D695DEB5DEB5DEB5DE74D695DEB5DE4F
:104F9C00B5DE95DE54D654D695DEB5DEB5DEB5DE7F
:104FAC00B5DEB5DEB5DEB5DE74D695DEB5DEB5DEC6
:104FBC00B5DE74D695DEB5DEB5DEB5DEB5DEB5DEB6
:104FCC00B5DEB5DEB5DEB5DEB5DEB5DEB5DEB5DE3D
:104FDC00B5DEB5DEB5DEB5DEB5DEB5DEB5DEB5DE2D
:104FEC00B5DEB5DEB5DEB5DEB5DE95DE74D674D6CF
:104FFC00B5DEB5DEB5DE95DE54D654D695DEB5DE1F
:10500C00B5DEB5DEB5DEB5DEB5DEB5DE74D654D6AE
:10501C0095DE95DE74D674D6B5DEB5DEB5DEB5DEBE
:10502C00B5DEB5DEB5DEB5DE95DE54D654D674D617
:10503C00B5DEB5DEB5DEB5DEB5DEB5DEB5DEB5DECC
:10504C0074D695DEB5DEB5DEB5DEB5DEB5DEB5DE25
:10505C00B5DE95DE95DE95DEB5DEB5DEB5DEB5DE0C
:10506C00B5DEB5DEB5DEB5DE74D674D6B5DE74D677
:10507C0054D674D6B5DEB5DEB5DEB5DEB5DEB5DE3E
:10508C0095DE54D654D6B5DEB5DE95DEB5DEB5DE8E
:10509C00B5DEB5DEB5DEB5DE95DEB5DEB5DEB5DE8C
:1050AC00B5DEB5DEB5DEB5DEB5DE95DE95DEB5DE9C
:1050BC00B5DE54D674D6B5DEB5DEB5DEB5DEB5DEFE
:1050CC00B5DEB5DEB5DE95DE95DEB5DEB5DEB5DE7C
:1050DC00B5DEB5DEB5DEB5DEB5DEB5DEB5DEB5DE2C
:1050EC00B5DE74D654D674D6B5DEB5DEB5DE54D680
:1050FC0074D6B5DEB5DEB5DE54D654D695DEB5DE47
:10510C00B5DEB5DEB5DEB5DEB5DE95DE95DE95DE5B
:10511C00B5DEB5DEB5DEB5DEB5DEB5DEB5DEB5DEEB
:10512C0095DE95DEB5DEB5DEB5DEB5DEB5DEB5DE1B
:10513C0095DE95DEB5DEB5DEB5DE95DE95DE95DE6B
:10514C00B5DEB5DEB5DEB5DEB5DEB5DEB5DE95DEDB
:10515C0095DEB5DEB5DEB5DE54D654D695DEB5DEBD
:10516C00B5DE54D654D654D6B5DEB5DEB5DEB5DED6
:10517C00B5DEB5DEB5DE54D654D695DEB5DEB5DE7D
:10518C00B5DEB5DEB5DEB5DEB5DEB5DEB5DEB5DE7B
:10519C00B5DEB5DEB5DE74D654D6B5DEB5DEB5DE1D
:1051AC00B5DEB5DE95DE95DEB5DEB5DE54D654D66D
:1051BC0095DEB5DEB5DEB5DEB5DEB5DEB5DEB5DE6B
:1051CC00B5DEB5DEB5DE74D674D6B5DE74D654D67F
:1051DC00B5DEB5DE95DE95DEB5DEB5DEB5DEB5DE6B
:1051EC0095DE54D654D695DEB5DEB5DEB5DE95DE4D
:1051FC0095DEB5DEB5DEB5DEB5DEB5DEB5DEB5DE2B
:10520C00B5DEB5DEB5DEB5DEB5DEB5DEB5DEB5DEFA
:10521C00B5DEB5DEB5DEB5DEB5DEB5DEB5DEB5DEEA
:10522C00B5DEB5DEB5DEB5DE74D653D654D6B5DEF6
:10523C00B5DEB5DEB5DEB5DEB5DEB5DE74D653D67D
:10524C0054D6B5DEB5DEB5DEB5DEB5DEB5DEB5DE23
:10525C00B5DEB5DE95DE95DEB5DEB5DE95DE54D673
:10526C0074D6B5DEB5DEB5DEB5DEB5DEB5DEB5DEE3
:10527C00B5DE74D654D674D6B5DEB5DE74D654D637
:10528C00B5DEB5DEB5DEB5DEB5DEB5DEB5DEB5DE7A
:10529C00B5DEB5DEB5DEB5DEB5DE95DE95DE95DECA
:1052AC0074D695DEB5DEB5DEB5DE74D695DEB5DE2C
:1052BC00B5DE95DE54D654D695DEB5DEB5DEB5DE5C
:1052CC00B5DEB5DEB5DEB5DE74D695DEB5DEB5DEA3
:1052DC00B5DE74D695DEB5DEB5DEB5DEB5DEB5DE93
:1052EC00B5DEB5DEB5DEB5DEB5DEB5DEB5DEB5DE1A
:1052FC00B5DEB5DEB5DEB5DEB5DEB5DEB5DEB5DE0A
:10530C00B5DEB5DEB5DEB5DEB5DE95DE74D674D6AB
:10531C00B5DEB5DEB5DE95DE54D654D695DEB5DEFB
:10532C0034DE72DD32DDB3DD95DEB5DE74D654D6F7
:10533C0095DE95DE74D674D6B5DEB5DEB5DEB5DE9B
:10534C00B5DEB5DEB5DE34DEF1D4B0D4B0D4B0D435
:10535C0052DD95DEB5DEB5DEB5DEB5DEB5DEB5DE2D
:10536C0074D695DEB5DEB5DEB5DEB5DE75DE12DDE6
:10537C00B0D4B0D4B0D4B0D4B0D4B3DDB5DEB5DED7
:10538C00B5DEB5DEB5DEB5DE74D674D6B5DE74D654
:10539C0054D674D654DEB0D4B0D4B0D4B0D4B0D4C7
:1053AC00B0D411D554D6B5DEB5DE95DEB5DEB5DE9E
:1053BC00B5DEB5DEB5DEB5DE95DEB5DE75DEF1DC6F
:1053CC00B0D4B0D4B0D4B0D4B0D452DD95DEB5DE08
:1053DC00B5DE54D674D6B5DEB5DEB5DEB5DEB5DEDB
:1053EC00B5DEB5DEB5DE92D5B0D4B0D4B0D4B0D481
:1053FC00F1D434DEB5DEB5DEB5DEB5DEB5DEB5DE58
:10540C00B5DE74D654D674D6B5DEB5DEB5DE54D65C
:10541C00B3DDF1DCB0D411D5D3D554D695DEB5DEE1
:10542C00B5DEB5DEB5DEB5DEB5DE95DE95DE95DE38
:10543C00B5DEB5DEB5DEB5DEB5DE75DE54DE75DEA9
:10544C0095DE95DEB5DEB5DEB5DEB5DEB5DEB5DEF8
:10545C0095DE95DEB5DEB5DEB5DE95DE95DE95DE48
:10546C00B5DEB5DEB5DEB5DEB5DEB5DEB5DE95DEB8
:10547C0095DEB5DEB5DEB5DE54D654D695DEB5DE9A
:10548C00B5DE54D654D654D6B5DEB5DEB5DEB5DEB3
:10549C00B5DEB5DEB5DE54D654D695DEB5DEB5DE5A
:1054AC00B5DEB5DEB5DEB5DEB5DEB5DEB5DEB5DE58
:1054BC00B5DEB5DEB5DE74D654D6B5DEB5DEB5DEFA
:1054CC00B5DEB5DE95DE95DEB5DEB5DE54D654D64A
:1054DC0095DEB5DEB5DEB5DEB5DEB5DEB5DEB5DE48
:1054EC00B5DEB5DEB5DE74D674D6B5DE74D654D65C
:1054FC00B5DEB5DE95DE95DEB5DEB5DEB5DEB5DE48
:10550C0095DE54D654D695DEB5DEB5DEB5DE95DE29
:10551C0095DEB5DEB5DEB5DEB5DEB5DEB5DEB5DE07
:10552C00B5DEB5DEB5DEB5DEB5DEB5DEB5DEB5DED7
:10553C00B5DEB5DEB5DEB5DEB5DEB5DEB5DEB5DEC7
:10554C0071B5CC83EC83EC83EC83EC83EC83EC8340
:10555C00EC83EC83EC83EC83EC83EC83EC83EC83C7
:10556C00EC83EC83EC8371B5CC836A83CDBCADB496
:10557C00ADB4ADB4ADB4ADB4ADB4ADB4ADB4ADB417
:10558C00ADB4ADB4ADB4ADB4ADB4ADBCC57ACC8333
:10559C00EC83CDBC0BFECAFDEAFDEAFDEAFDEAFD9B
:1055AC00EAFDEAFDEAFDEAFDEAFDEAFDEAFDEAFDB7
:1055BC00CAFDEAFD22A3CC83EC83ADB4CAFD23D48F
:1055CC0001A301A321A301A301A301A301A301A38F
:1055DC0001A321A301A321A329E5CAFD01A3CC8327
:1055EC00EC83ADB4EAFD01A38051E161A059608A5E
:1055FC006082608260826082608AA059E161805919
:10560C00ADB4EAFD01A3CC83EC83ADB4EAFD01A3F8
:10561C00A08A8AFDA89B20B383ECA3ECA3ECC3F473
:10562C0082BBA89B8AFDA18AADB4EAFD01A3CC8301
:10563C00EC83ADB4EAFD01A3207268FDCCF5889330
:10564C00E4BBCAFDCAFD88CCEA9BCCF524CC404116
:10565C00ADB4EAFD01A3CC83EC83ADB4EAFD21A388
:10566C00404122A368FDCCF5C99B88CC88CCCA9B51
:10567C00CCFD24CC60822072ADB4EAFD01A3CC83B6
:10568C00EC83ADB4EAFD01A36082C09A029B68FD75
:10569C00CCF5898BA66ACCF524CC6082A5E4A18AD2
:1056AC00ADB4EAFD01A3CC83EC83ADB4EAFD01A358
:1056BC00608262EC029B22A368FDCCF5CA9B43A3DB
:1056CC006082C6E4A9FDA18AADB4EAFD01A3CC8336
:1056DC00EC83ADB4EAFD01A36082A3ECA9FDA47A2E
:1056EC00A18A68FDCCF5688BA4B3CAFD89FDA18A9B
:1056FC00ADB4EAFD01A3CC83EC83ADB4EAFD01A308
:10570C006082C3F488CCC99B039302A368FDCCF5DB
:10571C00EA9B88CCA9FDA18AADB4EAFD01A3CC8398
:10572C00EC83ADB4EAFD01A3608A82BBEA9BCCFD9D
:10573C0004CCE06922A368FDCCF5CA9B67CCA18A96
:10574C00ADB4EAFD01A3CC83EC83ADB4EAFD21A397
:10575C00A059A89BCCF524CC6082A6DCC6AB22A3B6
:10576C0068FDCCF5A79BA059ADB4EAFD01A3CC8391
:10577C00EC83ADB4EAFD01A3E1618AFD24CC608227
:10578C00A5E4A9FDA9FDA5AB22A368FD48FDE16137
:10579C00ADB4EAFD01A3CC83EC83ADB4EAFD21A347
:1057AC008059A18A40412072A18AA18AA18AA18A2A
:1057BC0040492172A192A059ADBCEAFD01A3CC8352
:1057CC00EC83ADB4CAFD29E5ADB4ADB4ADB4ADB4A4
:1057DC00ADB4ADB4ADB4ADB4ADBCADB4ADB4ADBCA5
:1057EC00F0EDCAFD01A3CC83EC83ADBCEAFDCAFD90
:1057FC00EAFDEAFDEAFDEAFDEAFDEAFDEAFDEAFD65
:10580C00EAFDEAFDEAFDEAFDCAFDA9FD21A3CC8370
:10581C00EC83C57A22A301A301A301A301A301A3D5
:10582C0001A301A301A301A301A301A301A301A34C
:10583C0001A321A30072CC8371B5CC83CC83CC8320
:10584C00CC83CC83CC83CC83CC83CC83CC83CC83D4
:10585C00CC83CC83CC83CC83CC83CC83CC8371B5ED
:10586C0071B5CC83EC83EC83EC83EC83EC83EC831D
:10587C00EC83EC83EC83EC83EC83EC83EC83EC83A4
:10588C00EC83EC83CC8371B5CC83245AE682E5821D
:10589C00E582E582E582E582E582E582E582E582C4
:1058AC00E582E582E582E582E582E5828159CC7B61
:1058BC00EC83E68262C342BB42BB42BB42BB42BBEF
:1058CC0042BB42BB42BB42BB42BB42BB42BB42BBE4
:1058DC0042BB42BB4071CC83EC83E58242BBC0919E
:1058EC004069406940694069406940694069406964
:1058FC004069406940694069C2A221BB4069CC83C0
:10590C00EC83E58242BB40698038C0408038C05887
:10591C00C050C050C050C050C0588038C0408038B3
:10592C00E68242BB4069CC83EC83E58242BB406992
:10593C00005903B3246A2071E0A100A200A220A2A6
:10594C006079246A03B30059E68242BB4069CC8378
:10595C00EC83E58242BB4069C048C1B263B3046AC0
:10596C00E08121BB21BB8192647243B3008A802801
:10597C00E68242BB4069CC83EC83E58242BB406942
:10598C0060284069E1B263B3446A81928192647287
:10599C0063B3E089C050C048E68242BB4069CC8307
:1059AC00EC83E58242BB4069C050E0604069E1B2E3
:1059BC0063B32462A25143B3E089E050409A00598A
:1059CC00E68242BB4069CC83EC83E58242BB4069F2
:1059DC00C050C09960696069E1B263B36472807150
:1059EC00E058619A01BB0059E68242BB4069CC8306
:1059FC00EC83E58242BB4069C05000A221BB6059D8
:105A0C002059E1B263B30362C07921BB01BB0059D9
:105A1C00E68242BB4069CC83EC83E58242BB4069A1
:105A2C00C05020A28192446A61614069E1B263B3C3
:105A3C006472819201BB0059E68242BB4069CC83FF
:105A4C00EC83E58242BB4069C0586079647263B3F1
:105A5C00E089A0404069E1B263B36472619200597D
:105A6C00E68242BB4069CC83EC83E58242BB406951
:105A7C008038246A43B3E089E050619A007A606907
:105A8C00E1B263B30272A038E68242BB4069CC83B8
:105A9C00EC83E58242BB4069C04003B3008AC0502E
:105AAC00409A01BB01BBE0796069E1B2C1B2C04070
:105ABC00E68242BB4069CC83EC83E58242BB406901
